{
  "_format": "hh-sol-artifact-1",
  "contractName": "Whrrl",
  "sourceName": "contracts/Whrrl.sol",
  "abi": [
    {
      "inputs": [
        {
          "internalType": "uint256",
          "name": "_mintFee",
          "type": "uint256"
        }
      ],
      "stateMutability": "nonpayable",
      "type": "constructor"
    },
    {
      "anonymous": false,
      "inputs": [
        {
          "indexed": true,
          "internalType": "address",
          "name": "owner",
          "type": "address"
        },
        {
          "indexed": true,
          "internalType": "address",
          "name": "approved",
          "type": "address"
        },
        {
          "indexed": true,
          "internalType": "uint256",
          "name": "tokenId",
          "type": "uint256"
        }
      ],
      "name": "Approval",
      "type": "event"
    },
    {
      "anonymous": false,
      "inputs": [
        {
          "indexed": true,
          "internalType": "address",
          "name": "owner",
          "type": "address"
        },
        {
          "indexed": true,
          "internalType": "address",
          "name": "operator",
          "type": "address"
        },
        {
          "indexed": false,
          "internalType": "bool",
          "name": "approved",
          "type": "bool"
        }
      ],
      "name": "ApprovalForAll",
      "type": "event"
    },
    {
      "anonymous": false,
      "inputs": [
        {
          "indexed": true,
          "internalType": "address",
          "name": "from",
          "type": "address"
        },
        {
          "indexed": true,
          "internalType": "address",
          "name": "to",
          "type": "address"
        },
        {
          "indexed": true,
          "internalType": "uint256",
          "name": "tokenId",
          "type": "uint256"
        }
      ],
      "name": "Transfer",
      "type": "event"
    },
    {
      "inputs": [],
      "name": "_tokenIds",
      "outputs": [
        {
          "internalType": "uint256",
          "name": "_value",
          "type": "uint256"
        }
      ],
      "stateMutability": "view",
      "type": "function"
    },
    {
      "inputs": [
        {
          "internalType": "address",
          "name": "to",
          "type": "address"
        },
        {
          "internalType": "uint256",
          "name": "tokenId",
          "type": "uint256"
        }
      ],
      "name": "approve",
      "outputs": [],
      "stateMutability": "nonpayable",
      "type": "function"
    },
    {
      "inputs": [
        {
          "internalType": "address",
          "name": "owner",
          "type": "address"
        }
      ],
      "name": "balanceOf",
      "outputs": [
        {
          "internalType": "uint256",
          "name": "",
          "type": "uint256"
        }
      ],
      "stateMutability": "view",
      "type": "function"
    },
    {
      "inputs": [
        {
          "internalType": "uint256",
          "name": "tokenId",
          "type": "uint256"
        }
      ],
      "name": "getApproved",
      "outputs": [
        {
          "internalType": "address",
          "name": "",
          "type": "address"
        }
      ],
      "stateMutability": "view",
      "type": "function"
    },
    {
      "inputs": [
        {
          "internalType": "uint256",
          "name": "tokenId",
          "type": "uint256"
        }
      ],
      "name": "getOwnerOfToken",
      "outputs": [
        {
          "internalType": "address",
          "name": "",
          "type": "address"
        }
      ],
      "stateMutability": "view",
      "type": "function"
    },
    {
      "inputs": [
        {
          "internalType": "address",
          "name": "owner",
          "type": "address"
        },
        {
          "internalType": "address",
          "name": "operator",
          "type": "address"
        }
      ],
      "name": "isApprovedForAll",
      "outputs": [
        {
          "internalType": "bool",
          "name": "",
          "type": "bool"
        }
      ],
      "stateMutability": "view",
      "type": "function"
    },
    {
      "inputs": [],
      "name": "mintFee",
      "outputs": [
        {
          "internalType": "uint256",
          "name": "",
          "type": "uint256"
        }
      ],
      "stateMutability": "view",
      "type": "function"
    },
    {
      "inputs": [
        {
          "internalType": "address",
          "name": "recipient",
          "type": "address"
        }
      ],
      "name": "mintNFT",
      "outputs": [
        {
          "internalType": "uint256",
          "name": "",
          "type": "uint256"
        }
      ],
      "stateMutability": "payable",
      "type": "function"
    },
    {
      "inputs": [],
      "name": "name",
      "outputs": [
        {
          "internalType": "string",
          "name": "",
          "type": "string"
        }
      ],
      "stateMutability": "view",
      "type": "function"
    },
    {
      "inputs": [
        {
          "internalType": "uint256",
          "name": "tokenId",
          "type": "uint256"
        }
      ],
      "name": "ownerOf",
      "outputs": [
        {
          "internalType": "address",
          "name": "",
          "type": "address"
        }
      ],
      "stateMutability": "view",
      "type": "function"
    },
    {
      "inputs": [
        {
          "internalType": "address",
          "name": "from",
          "type": "address"
        },
        {
          "internalType": "address",
          "name": "to",
          "type": "address"
        },
        {
          "internalType": "uint256",
          "name": "tokenId",
          "type": "uint256"
        }
      ],
      "name": "safeTransferFrom",
      "outputs": [],
      "stateMutability": "nonpayable",
      "type": "function"
    },
    {
      "inputs": [
        {
          "internalType": "address",
          "name": "from",
          "type": "address"
        },
        {
          "internalType": "address",
          "name": "to",
          "type": "address"
        },
        {
          "internalType": "uint256",
          "name": "tokenId",
          "type": "uint256"
        },
        {
          "internalType": "bytes",
          "name": "data",
          "type": "bytes"
        }
      ],
      "name": "safeTransferFrom",
      "outputs": [],
      "stateMutability": "nonpayable",
      "type": "function"
    },
    {
      "inputs": [
        {
          "internalType": "address",
          "name": "operator",
          "type": "address"
        },
        {
          "internalType": "bool",
          "name": "approved",
          "type": "bool"
        }
      ],
      "name": "setApprovalForAll",
      "outputs": [],
      "stateMutability": "nonpayable",
      "type": "function"
    },
    {
      "inputs": [
        {
          "internalType": "bytes4",
          "name": "interfaceId",
          "type": "bytes4"
        }
      ],
      "name": "supportsInterface",
      "outputs": [
        {
          "internalType": "bool",
          "name": "",
          "type": "bool"
        }
      ],
      "stateMutability": "view",
      "type": "function"
    },
    {
      "inputs": [],
      "name": "symbol",
      "outputs": [
        {
          "internalType": "string",
          "name": "",
          "type": "string"
        }
      ],
      "stateMutability": "view",
      "type": "function"
    },
    {
      "inputs": [
        {
          "internalType": "uint256",
          "name": "tokenId",
          "type": "uint256"
        }
      ],
      "name": "tokenURI",
      "outputs": [
        {
          "internalType": "string",
          "name": "",
          "type": "string"
        }
      ],
      "stateMutability": "view",
      "type": "function"
    },
    {
      "inputs": [
        {
          "internalType": "address",
          "name": "from",
          "type": "address"
        },
        {
          "internalType": "address",
          "name": "to",
          "type": "address"
        },
        {
          "internalType": "uint256",
          "name": "tokenId",
          "type": "uint256"
        }
      ],
      "name": "transferFrom",
      "outputs": [],
      "stateMutability": "nonpayable",
      "type": "function"
    }
  ],
  "bytecode": "0x60806040523480156200001157600080fd5b5060405162002f6238038062002f62833981810160405281019062000037919062000117565b6040518060400160405280600581526020017f574852524c0000000000000000000000000000000000000000000000000000008152506040518060400160405280600381526020017f57524c00000000000000000000000000000000000000000000000000000000008152508160009081620000b49190620003b9565b508060019081620000c69190620003b9565b5050508060088190555050620004a0565b600080fd5b6000819050919050565b620000f181620000dc565b8114620000fd57600080fd5b50565b6000815190506200011181620000e6565b92915050565b60006020828403121562000130576200012f620000d7565b5b6000620001408482850162000100565b91505092915050565b600081519050919050565b7f4e487b7100000000000000000000000000000000000000000000000000000000600052604160045260246000fd5b7f4e487b7100000000000000000000000000000000000000000000000000000000600052602260045260246000fd5b60006002820490506001821680620001cb57607f821691505b602082108103620001e157620001e062000183565b5b50919050565b60008190508160005260206000209050919050565b60006020601f8301049050919050565b600082821b905092915050565b6000600883026200024b7fffffffffffffffffffffffffffffffffffffffffffffffffffffffffffffffff826200020c565b6200025786836200020c565b95508019841693508086168417925050509392505050565b6000819050919050565b60006200029a620002946200028e84620000dc565b6200026f565b620000dc565b9050919050565b6000819050919050565b620002b68362000279565b620002ce620002c582620002a1565b84845462000219565b825550505050565b600090565b620002e5620002d6565b620002f2818484620002ab565b505050565b5b818110156200031a576200030e600082620002db565b600181019050620002f8565b5050565b601f82111562000369576200033381620001e7565b6200033e84620001fc565b810160208510156200034e578190505b620003666200035d85620001fc565b830182620002f7565b50505b505050565b600082821c905092915050565b60006200038e600019846008026200036e565b1980831691505092915050565b6000620003a983836200037b565b9150826002028217905092915050565b620003c48262000149565b67ffffffffffffffff811115620003e057620003df62000154565b5b620003ec8254620001b2565b620003f98282856200031e565b600060209050601f8311600181146200043157600084156200041c578287015190505b6200042885826200039b565b86555062000498565b601f1984166200044186620001e7565b60005b828110156200046b5784890151825560018201915060208501945060208101905062000444565b868310156200048b578489015162000487601f8916826200037b565b8355505b6001600288020188555050505b505050505050565b612ab280620004b06000396000f3fe6080604052600436106100fe5760003560e01c80636352211e11610095578063a22cb46511610064578063a22cb46514610360578063aa46a40014610389578063b88d4fde146103b4578063c87b56dd146103dd578063e985e9c51461041a576100fe565b80636352211e1461027e57806370a08231146102bb5780637f1dd80b146102f857806395d89b4114610335576100fe565b806313966db5116100d157806313966db5146101d157806323b872dd146101fc57806342842e0e1461022557806354ba0f271461024e576100fe565b806301ffc9a71461010357806306fdde0314610140578063081812fc1461016b578063095ea7b3146101a8575b600080fd5b34801561010f57600080fd5b5061012a60048036038101906101259190611c3f565b610457565b6040516101379190611c87565b60405180910390f35b34801561014c57600080fd5b50610155610539565b6040516101629190611d32565b60405180910390f35b34801561017757600080fd5b50610192600480360381019061018d9190611d8a565b6105cb565b60405161019f9190611df8565b60405180910390f35b3480156101b457600080fd5b506101cf60048036038101906101ca9190611e3f565b610611565b005b3480156101dd57600080fd5b506101e6610728565b6040516101f39190611e8e565b60405180910390f35b34801561020857600080fd5b50610223600480360381019061021e9190611ea9565b61072e565b005b34801561023157600080fd5b5061024c60048036038101906102479190611ea9565b61078e565b005b61026860048036038101906102639190611efc565b6107ae565b6040516102759190611e8e565b60405180910390f35b34801561028a57600080fd5b506102a560048036038101906102a09190611d8a565b610829565b6040516102b29190611df8565b60405180910390f35b3480156102c757600080fd5b506102e260048036038101906102dd9190611efc565b6108af565b6040516102ef9190611e8e565b60405180910390f35b34801561030457600080fd5b5061031f600480360381019061031a9190611d8a565b610966565b60405161032c9190611df8565b60405180910390f35b34801561034157600080fd5b5061034a6109eb565b6040516103579190611d32565b60405180910390f35b34801561036c57600080fd5b5061038760048036038101906103829190611f55565b610a7d565b005b34801561039557600080fd5b5061039e610a93565b6040516103ab9190611e8e565b60405180910390f35b3480156103c057600080fd5b506103db60048036038101906103d691906120ca565b610a9f565b005b3480156103e957600080fd5b5061040460048036038101906103ff9190611d8a565b610b01565b6040516104119190611d32565b60405180910390f35b34801561042657600080fd5b50610441600480360381019061043c919061214d565b610b69565b60405161044e9190611c87565b60405180910390f35b60007f80ac58cd000000000000000000000000000000000000000000000000000000007bffffffffffffffffffffffffffffffffffffffffffffffffffffffff1916827bffffffffffffffffffffffffffffffffffffffffffffffffffffffff1916148061052257507f5b5e139f000000000000000000000000000000000000000000000000000000007bffffffffffffffffffffffffffffffffffffffffffffffffffffffff1916827bffffffffffffffffffffffffffffffffffffffffffffffffffffffff1916145b80610532575061053182610bfd565b5b9050919050565b606060008054610548906121bc565b80601f0160208091040260200160405190810160405280929190818152602001828054610574906121bc565b80156105c15780601f10610596576101008083540402835291602001916105c1565b820191906000526020600020905b8154815290600101906020018083116105a457829003601f168201915b5050505050905090565b60006105d682610c67565b6004600083815260200190815260200160002060009054906101000a900473ffffffffffffffffffffffffffffffffffffffff169050919050565b600061061c82610829565b90508073ffffffffffffffffffffffffffffffffffffffff168373ffffffffffffffffffffffffffffffffffffffff160361068c576040517f08c379a00000000000000000000000000000000000000000000000000000000081526004016106839061225f565b60405180910390fd5b8073ffffffffffffffffffffffffffffffffffffffff166106ab610cb2565b73ffffffffffffffffffffffffffffffffffffffff1614806106da57506106d9816106d4610cb2565b610b69565b5b610719576040517f08c379a0000000000000000000000000000000000000000000000000000000008152600401610710906122f1565b60405180910390fd5b6107238383610cba565b505050565b60085481565b61073f610739610cb2565b82610d73565b61077e576040517f08c379a000000000000000000000000000000000000000000000000000000000815260040161077590612383565b60405180910390fd5b610789838383610e08565b505050565b6107a983838360405180602001604052806000815250610a9f565b505050565b600060085434146107f4576040517f08c379a00000000000000000000000000000000000000000000000000000000081526004016107eb906123ef565b60405180910390fd5b6107fe6006611101565b600061080a6006611117565b90506108168382611125565b6108208184611143565b80915050919050565b600080610835836111e1565b9050600073ffffffffffffffffffffffffffffffffffffffff168173ffffffffffffffffffffffffffffffffffffffff16036108a6576040517f08c379a000000000000000000000000000000000000000000000000000000000815260040161089d9061245b565b60405180910390fd5b80915050919050565b60008073ffffffffffffffffffffffffffffffffffffffff168273ffffffffffffffffffffffffffffffffffffffff160361091f576040517f08c379a0000000000000000000000000000000000000000000000000000000008152600401610916906124ed565b60405180910390fd5b600360008373ffffffffffffffffffffffffffffffffffffffff1673ffffffffffffffffffffffffffffffffffffffff168152602001908152602001600020549050919050565b60006109718261121e565b6109b0576040517f08c379a00000000000000000000000000000000000000000000000000000000081526004016109a790612559565b60405180910390fd5b6007600083815260200190815260200160002060009054906101000a900473ffffffffffffffffffffffffffffffffffffffff169050919050565b6060600180546109fa906121bc565b80601f0160208091040260200160405190810160405280929190818152602001828054610a26906121bc565b8015610a735780601f10610a4857610100808354040283529160200191610a73565b820191906000526020600020905b815481529060010190602001808311610a5657829003601f168201915b5050505050905090565b610a8f610a88610cb2565b838361125f565b5050565b60068060000154905081565b610ab0610aaa610cb2565b83610d73565b610aef576040517f08c379a0000000000000000000000000000000000000000000000000000000008152600401610ae690612383565b60405180910390fd5b610afb848484846113cb565b50505050565b6060610b0c82610c67565b6000610b16611427565b90506000815111610b365760405180602001604052806000815250610b61565b80610b4084611464565b604051602001610b519291906125b5565b6040516020818303038152906040525b915050919050565b6000600560008473ffffffffffffffffffffffffffffffffffffffff1673ffffffffffffffffffffffffffffffffffffffff16815260200190815260200160002060008373ffffffffffffffffffffffffffffffffffffffff1673ffffffffffffffffffffffffffffffffffffffff16815260200190815260200160002060009054906101000a900460ff16905092915050565b60007f01ffc9a7000000000000000000000000000000000000000000000000000000007bffffffffffffffffffffffffffffffffffffffffffffffffffffffff1916827bffffffffffffffffffffffffffffffffffffffffffffffffffffffff1916149050919050565b610c708161121e565b610caf576040517f08c379a0000000000000000000000000000000000000000000000000000000008152600401610ca69061245b565b60405180910390fd5b50565b600033905090565b816004600083815260200190815260200160002060006101000a81548173ffffffffffffffffffffffffffffffffffffffff021916908373ffffffffffffffffffffffffffffffffffffffff160217905550808273ffffffffffffffffffffffffffffffffffffffff16610d2d83610829565b73ffffffffffffffffffffffffffffffffffffffff167f8c5be1e5ebec7d5bd14f71427d1e84f3dd0314c0f7b2291e5b200ac8c7c3b92560405160405180910390a45050565b600080610d7f83610829565b90508073ffffffffffffffffffffffffffffffffffffffff168473ffffffffffffffffffffffffffffffffffffffff161480610dc15750610dc08185610b69565b5b80610dff57508373ffffffffffffffffffffffffffffffffffffffff16610de7846105cb565b73ffffffffffffffffffffffffffffffffffffffff16145b91505092915050565b8273ffffffffffffffffffffffffffffffffffffffff16610e2882610829565b73ffffffffffffffffffffffffffffffffffffffff1614610e7e576040517f08c379a0000000000000000000000000000000000000000000000000000000008152600401610e759061264b565b60405180910390fd5b600073ffffffffffffffffffffffffffffffffffffffff168273ffffffffffffffffffffffffffffffffffffffff1603610eed576040517f08c379a0000000000000000000000000000000000000000000000000000000008152600401610ee4906126dd565b60405180910390fd5b610efa8383836001611532565b8273ffffffffffffffffffffffffffffffffffffffff16610f1a82610829565b73ffffffffffffffffffffffffffffffffffffffff1614610f70576040517f08c379a0000000000000000000000000000000000000000000000000000000008152600401610f679061264b565b60405180910390fd5b6004600082815260200190815260200160002060006101000a81549073ffffffffffffffffffffffffffffffffffffffff02191690556001600360008573ffffffffffffffffffffffffffffffffffffffff1673ffffffffffffffffffffffffffffffffffffffff168152602001908152602001600020600082825403925050819055506001600360008473ffffffffffffffffffffffffffffffffffffffff1673ffffffffffffffffffffffffffffffffffffffff16815260200190815260200160002060008282540192505081905550816002600083815260200190815260200160002060006101000a81548173ffffffffffffffffffffffffffffffffffffffff021916908373ffffffffffffffffffffffffffffffffffffffff160217905550808273ffffffffffffffffffffffffffffffffffffffff168473ffffffffffffffffffffffffffffffffffffffff167fddf252ad1be2c89b69c2b068fc378daa952ba7f163c4a11628f55a4df523b3ef60405160405180910390a46110fc8383836001611658565b505050565b6001816000016000828254019250508190555050565b600081600001549050919050565b61113f82826040518060200160405280600081525061165e565b5050565b61114c8261121e565b61118b576040517f08c379a000000000000000000000000000000000000000000000000000000000815260040161118290612559565b60405180910390fd5b806007600084815260200190815260200160002060006101000a81548173ffffffffffffffffffffffffffffffffffffffff021916908373ffffffffffffffffffffffffffffffffffffffff1602179055505050565b60006002600083815260200190815260200160002060009054906101000a900473ffffffffffffffffffffffffffffffffffffffff169050919050565b60008073ffffffffffffffffffffffffffffffffffffffff16611240836111e1565b73ffffffffffffffffffffffffffffffffffffffff1614159050919050565b8173ffffffffffffffffffffffffffffffffffffffff168373ffffffffffffffffffffffffffffffffffffffff16036112cd576040517f08c379a00000000000000000000000000000000000000000000000000000000081526004016112c490612749565b60405180910390fd5b80600560008573ffffffffffffffffffffffffffffffffffffffff1673ffffffffffffffffffffffffffffffffffffffff16815260200190815260200160002060008473ffffffffffffffffffffffffffffffffffffffff1673ffffffffffffffffffffffffffffffffffffffff16815260200190815260200160002060006101000a81548160ff0219169083151502179055508173ffffffffffffffffffffffffffffffffffffffff168373ffffffffffffffffffffffffffffffffffffffff167f17307eab39ab6107e8899845ad3d59bd9653f200f220920489ca2b5937696c31836040516113be9190611c87565b60405180910390a3505050565b6113d6848484610e08565b6113e2848484846116b9565b611421576040517f08c379a0000000000000000000000000000000000000000000000000000000008152600401611418906127db565b60405180910390fd5b50505050565b60606040518060400160405280601281526020017f68747470733a2f2f676f6f676c652e636f6d0000000000000000000000000000815250905090565b60606000600161147384611840565b01905060008167ffffffffffffffff81111561149257611491611f9f565b5b6040519080825280601f01601f1916602001820160405280156114c45781602001600182028036833780820191505090505b509050600082602001820190505b600115611527578080600190039150507f3031323334353637383961626364656600000000000000000000000000000000600a86061a8153600a858161151b5761151a6127fb565b5b049450600085036114d2575b819350505050919050565b600181111561165257600073ffffffffffffffffffffffffffffffffffffffff168473ffffffffffffffffffffffffffffffffffffffff16146115c65780600360008673ffffffffffffffffffffffffffffffffffffffff1673ffffffffffffffffffffffffffffffffffffffff16815260200190815260200160002060008282546115be9190612859565b925050819055505b600073ffffffffffffffffffffffffffffffffffffffff168373ffffffffffffffffffffffffffffffffffffffff16146116515780600360008573ffffffffffffffffffffffffffffffffffffffff1673ffffffffffffffffffffffffffffffffffffffff1681526020019081526020016000206000828254611649919061288d565b925050819055505b5b50505050565b50505050565b6116688383611993565b61167560008484846116b9565b6116b4576040517f08c379a00000000000000000000000000000000000000000000000000000000081526004016116ab906127db565b60405180910390fd5b505050565b60006116da8473ffffffffffffffffffffffffffffffffffffffff16611bb0565b15611833578373ffffffffffffffffffffffffffffffffffffffff1663150b7a02611703610cb2565b8786866040518563ffffffff1660e01b81526004016117259493929190612916565b6020604051808303816000875af192505050801561176157506040513d601f19601f8201168201806040525081019061175e9190612977565b60015b6117e3573d8060008114611791576040519150601f19603f3d011682016040523d82523d6000602084013e611796565b606091505b5060008151036117db576040517f08c379a00000000000000000000000000000000000000000000000000000000081526004016117d2906127db565b60405180910390fd5b805181602001fd5b63150b7a0260e01b7bffffffffffffffffffffffffffffffffffffffffffffffffffffffff1916817bffffffffffffffffffffffffffffffffffffffffffffffffffffffff191614915050611838565b600190505b949350505050565b600080600090507a184f03e93ff9f4daa797ed6e38ed64bf6a1f010000000000000000831061189e577a184f03e93ff9f4daa797ed6e38ed64bf6a1f0100000000000000008381611894576118936127fb565b5b0492506040810190505b6d04ee2d6d415b85acef810000000083106118db576d04ee2d6d415b85acef810000000083816118d1576118d06127fb565b5b0492506020810190505b662386f26fc10000831061190a57662386f26fc100008381611900576118ff6127fb565b5b0492506010810190505b6305f5e1008310611933576305f5e1008381611929576119286127fb565b5b0492506008810190505b612710831061195857612710838161194e5761194d6127fb565b5b0492506004810190505b6064831061197b5760648381611971576119706127fb565b5b0492506002810190505b600a831061198a576001810190505b80915050919050565b600073ffffffffffffffffffffffffffffffffffffffff168273ffffffffffffffffffffffffffffffffffffffff1603611a02576040517f08c379a00000000000000000000000000000000000000000000000000000000081526004016119f9906129f0565b60405180910390fd5b611a0b8161121e565b15611a4b576040517f08c379a0000000000000000000000000000000000000000000000000000000008152600401611a4290612a5c565b60405180910390fd5b611a59600083836001611532565b611a628161121e565b15611aa2576040517f08c379a0000000000000000000000000000000000000000000000000000000008152600401611a9990612a5c565b60405180910390fd5b6001600360008473ffffffffffffffffffffffffffffffffffffffff1673ffffffffffffffffffffffffffffffffffffffff16815260200190815260200160002060008282540192505081905550816002600083815260200190815260200160002060006101000a81548173ffffffffffffffffffffffffffffffffffffffff021916908373ffffffffffffffffffffffffffffffffffffffff160217905550808273ffffffffffffffffffffffffffffffffffffffff16600073ffffffffffffffffffffffffffffffffffffffff167fddf252ad1be2c89b69c2b068fc378daa952ba7f163c4a11628f55a4df523b3ef60405160405180910390a4611bac600083836001611658565b5050565b6000808273ffffffffffffffffffffffffffffffffffffffff163b119050919050565b6000604051905090565b600080fd5b600080fd5b60007fffffffff0000000000000000000000000000000000000000000000000000000082169050919050565b611c1c81611be7565b8114611c2757600080fd5b50565b600081359050611c3981611c13565b92915050565b600060208284031215611c5557611c54611bdd565b5b6000611c6384828501611c2a565b91505092915050565b60008115159050919050565b611c8181611c6c565b82525050565b6000602082019050611c9c6000830184611c78565b92915050565b600081519050919050565b600082825260208201905092915050565b60005b83811015611cdc578082015181840152602081019050611cc1565b60008484015250505050565b6000601f19601f8301169050919050565b6000611d0482611ca2565b611d0e8185611cad565b9350611d1e818560208601611cbe565b611d2781611ce8565b840191505092915050565b60006020820190508181036000830152611d4c8184611cf9565b905092915050565b6000819050919050565b611d6781611d54565b8114611d7257600080fd5b50565b600081359050611d8481611d5e565b92915050565b600060208284031215611da057611d9f611bdd565b5b6000611dae84828501611d75565b91505092915050565b600073ffffffffffffffffffffffffffffffffffffffff82169050919050565b6000611de282611db7565b9050919050565b611df281611dd7565b82525050565b6000602082019050611e0d6000830184611de9565b92915050565b611e1c81611dd7565b8114611e2757600080fd5b50565b600081359050611e3981611e13565b92915050565b60008060408385031215611e5657611e55611bdd565b5b6000611e6485828601611e2a565b9250506020611e7585828601611d75565b9150509250929050565b611e8881611d54565b82525050565b6000602082019050611ea36000830184611e7f565b92915050565b600080600060608486031215611ec257611ec1611bdd565b5b6000611ed086828701611e2a565b9350506020611ee186828701611e2a565b9250506040611ef286828701611d75565b9150509250925092565b600060208284031215611f1257611f11611bdd565b5b6000611f2084828501611e2a565b91505092915050565b611f3281611c6c565b8114611f3d57600080fd5b50565b600081359050611f4f81611f29565b92915050565b60008060408385031215611f6c57611f6b611bdd565b5b6000611f7a85828601611e2a565b9250506020611f8b85828601611f40565b9150509250929050565b600080fd5b600080fd5b7f4e487b7100000000000000000000000000000000000000000000000000000000600052604160045260246000fd5b611fd782611ce8565b810181811067ffffffffffffffff82111715611ff657611ff5611f9f565b5b80604052505050565b6000612009611bd3565b90506120158282611fce565b919050565b600067ffffffffffffffff82111561203557612034611f9f565b5b61203e82611ce8565b9050602081019050919050565b82818337600083830152505050565b600061206d6120688461201a565b611fff565b90508281526020810184848401111561208957612088611f9a565b5b61209484828561204b565b509392505050565b600082601f8301126120b1576120b0611f95565b5b81356120c184826020860161205a565b91505092915050565b600080600080608085870312156120e4576120e3611bdd565b5b60006120f287828801611e2a565b945050602061210387828801611e2a565b935050604061211487828801611d75565b925050606085013567ffffffffffffffff81111561213557612134611be2565b5b6121418782880161209c565b91505092959194509250565b6000806040838503121561216457612163611bdd565b5b600061217285828601611e2a565b925050602061218385828601611e2a565b9150509250929050565b7f4e487b7100000000000000000000000000000000000000000000000000000000600052602260045260246000fd5b600060028204905060018216806121d457607f821691505b6020821081036121e7576121e661218d565b5b50919050565b7f4552433732313a20617070726f76616c20746f2063757272656e74206f776e6560008201527f7200000000000000000000000000000000000000000000000000000000000000602082015250565b6000612249602183611cad565b9150612254826121ed565b604082019050919050565b600060208201905081810360008301526122788161223c565b9050919050565b7f4552433732313a20617070726f76652063616c6c6572206973206e6f7420746f60008201527f6b656e206f776e6572206f7220617070726f76656420666f7220616c6c000000602082015250565b60006122db603d83611cad565b91506122e68261227f565b604082019050919050565b6000602082019050818103600083015261230a816122ce565b9050919050565b7f4552433732313a2063616c6c6572206973206e6f7420746f6b656e206f776e6560008201527f72206f7220617070726f76656400000000000000000000000000000000000000602082015250565b600061236d602d83611cad565b915061237882612311565b604082019050919050565b6000602082019050818103600083015261239c81612360565b9050919050565b7f496e73756666696369656e74204d696e74204665650000000000000000000000600082015250565b60006123d9601583611cad565b91506123e4826123a3565b602082019050919050565b60006020820190508181036000830152612408816123cc565b9050919050565b7f4552433732313a20696e76616c696420746f6b656e2049440000000000000000600082015250565b6000612445601883611cad565b91506124508261240f565b602082019050919050565b6000602082019050818103600083015261247481612438565b9050919050565b7f4552433732313a2061646472657373207a65726f206973206e6f74206120766160008201527f6c6964206f776e65720000000000000000000000000000000000000000000000602082015250565b60006124d7602983611cad565b91506124e28261247b565b604082019050919050565b60006020820190508181036000830152612506816124ca565b9050919050565b7f546f6b656e20646f6573206e6f74206578697374000000000000000000000000600082015250565b6000612543601483611cad565b915061254e8261250d565b602082019050919050565b6000602082019050818103600083015261257281612536565b9050919050565b600081905092915050565b600061258f82611ca2565b6125998185612579565b93506125a9818560208601611cbe565b80840191505092915050565b60006125c18285612584565b91506125cd8284612584565b91508190509392505050565b7f4552433732313a207472616e736665722066726f6d20696e636f72726563742060008201527f6f776e6572000000000000000000000000000000000000000000000000000000602082015250565b6000612635602583611cad565b9150612640826125d9565b604082019050919050565b6000602082019050818103600083015261266481612628565b9050919050565b7f4552433732313a207472616e7366657220746f20746865207a65726f2061646460008201527f7265737300000000000000000000000000000000000000000000000000000000602082015250565b60006126c7602483611cad565b91506126d28261266b565b604082019050919050565b600060208201905081810360008301526126f6816126ba565b9050919050565b7f4552433732313a20617070726f766520746f2063616c6c657200000000000000600082015250565b6000612733601983611cad565b915061273e826126fd565b602082019050919050565b6000602082019050818103600083015261276281612726565b9050919050565b7f4552433732313a207472616e7366657220746f206e6f6e20455243373231526560008201527f63656976657220696d706c656d656e7465720000000000000000000000000000602082015250565b60006127c5603283611cad565b91506127d082612769565b604082019050919050565b600060208201905081810360008301526127f4816127b8565b9050919050565b7f4e487b7100000000000000000000000000000000000000000000000000000000600052601260045260246000fd5b7f4e487b7100000000000000000000000000000000000000000000000000000000600052601160045260246000fd5b600061286482611d54565b915061286f83611d54565b92508282039050818111156128875761288661282a565b5b92915050565b600061289882611d54565b91506128a383611d54565b92508282019050808211156128bb576128ba61282a565b5b92915050565b600081519050919050565b600082825260208201905092915050565b60006128e8826128c1565b6128f281856128cc565b9350612902818560208601611cbe565b61290b81611ce8565b840191505092915050565b600060808201905061292b6000830187611de9565b6129386020830186611de9565b6129456040830185611e7f565b818103606083015261295781846128dd565b905095945050505050565b60008151905061297181611c13565b92915050565b60006020828403121561298d5761298c611bdd565b5b600061299b84828501612962565b91505092915050565b7f4552433732313a206d696e7420746f20746865207a65726f2061646472657373600082015250565b60006129da602083611cad565b91506129e5826129a4565b602082019050919050565b60006020820190508181036000830152612a09816129cd565b9050919050565b7f4552433732313a20746f6b656e20616c7265616479206d696e74656400000000600082015250565b6000612a46601c83611cad565b9150612a5182612a10565b602082019050919050565b60006020820190508181036000830152612a7581612a39565b905091905056fea2646970667358221220e396a662bc47c88ae7cd3da510953a4fafc51e4e71467dc974d9a24caa1980fd64736f6c63430008110033",
  "linkReferences": {},
  "deployedLinkReferences": {}
}